:100000000C9472000C9413020C9493000C949300C3
:100010000C9493000C9493000C9493000C94930014
:100020000C9493000C9493000C9493000C94930004
:100030000C9493000C9493000C9493000C949300F4
:100040000C9493000C9493000C9493000C949300E4
:100050000C9493000C9493000C9493000C949300D4
:100060000C9493000C9493000C9493000C949300C4
:100070000C9493000C9493000C9493000C949300B4
:100080000C9493000C9493000C9493000C949300A4
:100090000C9493000C9493000C9493000C94930094
:1000A0000C9493000C9493000C9493000C94930084
:1000B0000C9493000C9493000C9493000C94930074
:1000C0000C9493000C9493000C9493000C94930064
:1000D0000C9493000C9493000C9493000C94930054
:1000E0000C94930011241FBECFEFD1E2DEBFCDBF31
:1000F00000E00CBF12E0A0E0B2E0ECE9F7E000E0C5
:100100000BBF02C007900D92AE32B107D9F712E0D3
:10011000AEE2B2E001C01D92AE34B107E1F70E9439
:1001200083030C94CC030C94000086E69EE00197B8
:10013000F1F700004098419880E388B9429AEFEFC8
:10014000F7E43197F1F700C000004298E6E6FEE0E0
:100150003197F1F700004098419888B9429AEFEF43
:10016000F7E43197F1F700C000004298E6E6FEE0C0
:100170003197F1F700004098419888B9429A8FEF83
:1001800097E40197F1F700C000004298E6E6FEE030
:100190003197F1F700004098419880E288B9429A7F
:1001A0008FEF97E40197F1F700C00000429808959F
:1001B00098B19F7098B998B1282F207F922B98B949
:1001C00040984198429AEFEFF7E43197F1F700C079
:1001D0000000429898B19F7098B998B18295807F3D
:1001E000892B88B940984198429A8FEF97E40197FC
:1001F000F1F700C00000429808950E94950086E63D
:100200009EE00197F1F7000088E20E94D80081E0AB
:100210000E94D80086E00E94D8008EE00E94D8009C
:1002200080E80E94D800089598B19F7098B998B15D
:10023000282F207F922B98B9409A4198429AEFEF4D
:10024000F7E43197F1F700C00000429898B19F7031
:1002500098B998B18295807F892B88B9409A419846
:10026000429A8FEF97E40197F1F700C0000042989F
:10027000089580E80E94D8000895CF93DF93EC01A1
:100280008881882331F021960E9414018991882366
:10029000D9F7DF91CF910895823079F0833018F447
:1002A0008130C9F405C0833069F08430A1F40FC0F7
:1002B000862F81580E94D8000895862F81540E946D
:1002C000D8000895862F8D560E94D8000895862F55
:1002D0008D520E94D80008950F931F93CF93DF9300
:1002E0008A01E901882311F0662319F40E9439017B
:1002F00002C00E944C01C530D10571F4C80160E113
:1003000077E20E94B803CB01C09690933B028093A2
:100310003A020E94140103C0C430D105B9F4C801E7
:1003200068EE73E00E94B803CB0170933D026093C6
:100330003C026AE070E00E94B803C09690934D02C0
:1003400080934C020E94140181E001C080E0C33020
:10035000D10511F08130B1F4C80164E670E00E946B
:10036000B803CB0170933D0260933C026AE070E0F9
:100370000E94B803C09690934902809348020E945D
:10038000140181E0C230D10511F08130B1F42AE0CE
:1003900030E0C801B9010E94B803CB0170933D025F
:1003A00060933C02B9010E94B803C0969093470243
:1003B000809346020E94140181E0C130D10511F002
:1003C000813061F4C8016AE070E00E94B803C09611
:1003D00090934B0280934A020E941401C630D105CB
:1003E0001CF085E40E941401DF91CF911F910F91C1
:1003F000089587B1876F87B988B1807888B90895E3
:100400008AB18E6F8AB9589A08950E94F9010E94A4
:1004100000020895F894E9E6F0E08081826080832C
:10042000E89A789408951F920F920FB60F921124B4
:100430008F939F93AF93BF9380912E0290912F0241
:10044000A0913002B09131020196A11DB11D80939F
:100450002E0290932F02A0933002B0933102BF91ED
:10046000AF919F918F910F900FBE0F901F90189595
:10047000F8940E9405020E940A02789408955E98FA
:100480005F9808955E9A5F9A08955E985F9A0895BE
:100490005E9A5F9808955C9A5D9A08950F931F93F2
:1004A0000E943F0210922E0210922F0210923002F0
:1004B000109231028FEF9FE7A4E081509040A0405E
:1004C000E1F700C0000080912E0290912F02A091D0
:1004D0003002B09131028093420290934302A09384
:1004E0004402B093450281E061E00E944C0180E04B
:1004F00092E00E943D01009142021091430220913E
:1005000044023091450282E061E0A80125E030E03C
:100510000E946C018FEF9FEFACE281509040A040B1
:10052000E1F700C0000081E00E94D8001F910F9108
:1005300008950F931F930E94420210922E02109270
:100540002F0210923002109231028FEF9FE7A4E049
:1005500081509040A040E1F700C0000080912E0241
:1005600090912F02A0913002B091310280933E020F
:1005700090933F02A0934002B093410281E061E07A
:100580000E944C018BE092E00E943D0100913E02EE
:1005900010913F02209140023091410282E061E0DF
:1005A000A80125E030E00E946C018FEF9FEFACE2E4
:1005B00081509040A040E1F700C0000081E00E941F
:1005C000D8001F910F9108950F931F930E94450229
:1005D00010922E0210922F021092300210923102CD
:1005E0008FEF9FE7A4E081509040A040E1F700C06A
:1005F000000080912E0290912F02A0913002B091C4
:1006000031028093320290933302A0933402B0936C
:10061000350281E061E00E944C0188E192E00E9495
:100620003D01009132021091330220913402309149
:10063000350282E061E0A80125E030E00E946C0113
:100640008FEF9FEFACE281509040A040E1F700C0F7
:10065000000081E00E94D8001F910F9108950F9330
:100660001F930E94480210922E0210922F021092A5
:100670003002109231028FEF9FE7A6E18150904047
:10068000A040E1F700C0000080912E0290912F025F
:10069000A0913002B09131028093360290933702DC
:1006A000A0933802B09339028FEF9FE7A4E0815006
:1006B0009040A040E1F700C0000081E061E00E94AE
:1006C0004C0184E292E00E943D01009136021091BB
:1006D0003702209138023091390282E061E0A801AE
:1006E00025E030E00E946C018FEF9FEFACE281507B
:1006F0009040A040E1F700C0000081E00E94D800D7
:100700001F910F9108950E9438020E9495000E9447
:10071000FD000E944B020E944E028FEF9FE7A6E170
:1007200081509040A040E1F700C000000E94990273
:100730008FEF9FE7A6E181509040A040E1F700C015
:1007400000000E94E4028FEF9FE7A6E181509040F5
:10075000A040E1F700C000000E942F038FEF9FE749
:10076000A6E181509040A040E1F700C00000D3CF47
:10077000AA1BBB1B51E107C0AA1FBB1FA617B707C7
:1007800010F0A61BB70B881F991F5A95A9F78095E3
:0C0790009095BC01CD010895F894FFCFB6
:10079C005265642050756C73657300477265656EA5
:1007AC002050756C73657300426C75652050756CC8
:0E07BC00736573006E6F2066696C7465720061
:00000001FF
