:100000000C94B3000C947C140C94D4000C94D40085
:100010000C94D4000C9421090C94BB080C94D400CB
:100020000C94D4000C94D4000C94D4000C94D40000
:100030000C94D4000C94D4000C94D4000C94D400F0
:100040000C94D4000C94D4000C94D4000C94D400E0
:100050000C94D4000C94D4000C94D4000C94D400D0
:100060000C94D4000C94D4000C94D4000C94D400C0
:100070000C94D4000C94D4000C94D4000C94D400B0
:100080000C94D4000C94D4000C94D4000C94A313BE
:100090000C94D4000C94D4000C94D4000C94D40090
:1000A0000C94D4000C94D4000C94D4000C94D40080
:1000B0000C94D4000C94D4000C94D4000C94D40070
:1000C0000C94D4000C94D4000C94D4000C94D40060
:1000D0000C94D4000C94D4000C94D4000C94D40050
:1000E0000C94D40007634236B79BD8A71A396856D8
:1000F00018AEBAAB558C1D3CB7CC5763BD6DEDFD4A
:10010000753EF6177231BF000000803F0800000006
:10011000BE922449123EABAAAA2ABECDCCCC4C3EFC
:1001200000000080BEABAAAAAA3E00000000BF00EB
:100130000000803F0000000000084178D3BB4387E7
:10014000D1133D190E3CC3BD4282AD2B3E68EC82FB
:1001500076BED98FE1A93E4C80EFFFBE01C4FF7F80
:100160003F000000000011241FBECFEFD1E2DEBF30
:10017000CDBF00E00CBF12E0A0E0B2E0E0EDF6E39E
:1001800000E00BBF02C007900D92A633B107D9F76C
:1001900015E0A6E3B2E001C01D92A434B107E1F777
:1001A0000E94EB150C94661B0C94000020E030E0DC
:1001B00040E050E00AC0119201968A319105D9F7CA
:1001C0002F5F3F4F2A31310589F0F901EE0FFF1FF4
:1001D000E20FF31FEE0FFF1FEE0FFF1FEE0FFF1FCB
:1001E000E20FF31FE056FD4FCA01E5CF0895F894E2
:1001F000909329018093280170932B0160932A0129
:1002000078940895F89480912A0290912B02009797
:1002100039F480E092E0909393028093920239C087
:100220009C01992324F422273327281B390B41E012
:100230002E30340789F4181619063CF486E092E053
:10024000909393028093920224C08CE092E090936A
:100250009302809392021DC0243B310539F482E160
:1002600092E0909393028093920213C02A35310555
:1002700081F4181619063CF48CE092E090939302F6
:100280008093920206C086E092E09093930280935E
:100290009202789408950F931F93CF93DF938C016C
:1002A000C0913802D09139022097A9F486E090E0FD
:1002B0000E94371AE82FF92FF0933902E0933802A1
:1002C000158304831182108213821282F093370205
:1002D000E093360219C086E090E00E94371AE82FBA
:1002E000F92F15830483F983E883A0913802B09134
:1002F0003902B383A2838D919C9111979093390217
:1003000080933802118210828091450290914602BA
:1003100001969093460280934502DF91CF911F9101
:100320000F91089586E69EE00197F1F7000040984E
:10033000419880E388B9429AEFEFF7E43197F1F7FB
:1003400000C000004298E6E6FEE03197F1F70000B9
:100350004098419888B9429AEFEFF7E43197F1F766
:1003600000C000004298E6E6FEE03197F1F7000099
:100370004098419888B9429A8FEF97E40197F1F736
:1003800000C000004298E6E6FEE03197F1F7000079
:100390004098419880E288B9429A8FEF97E401979C
:1003A000F1F700C000004298089598B19F7098B985
:1003B00098B1282F207F922B98B940984198429A63
:1003C000EFEFF7E43197F1F700C00000429898B1E1
:1003D0009F7098B998B18295807F892B88B9409891
:1003E0004198429A8FEF97E40197F1F700C000001F
:1003F000429808950E94920186E69EE00197F1F7E7
:10040000000088E20E94D50181E00E94D50186E0CB
:100410000E94D5018EE00E94D50180E80E94D5019E
:10042000089598B19F7098B998B1282F207F922B8A
:1004300098B9409A4198429AEFEFF7E43197F1F773
:1004400000C00000429898B19F7098B998B1829509
:10045000807F892B88B9409A4198429A8FEF97E420
:100460000197F1F700C000004298089580E80E94CB
:10047000D5010895CF93DF93EC018881882331F073
:1004800021960E94110289918823D9F7DF91CF919B
:1004900008951F93CF93DF93C82F64E60E94041A38
:1004A000D82F482F50E02CE93FEF429FC001439FD7
:1004B000900D529F900D11248C0F911D6AE070E0F9
:1004C0000E94241A162F8D2F805D0E941102812F09
:1004D000805D0E941102C05D8CE9D89FD02D11244F
:1004E0008C2F8D0F110F912F990F990F190F811BC1
:1004F0000E941102DF91CF911F910895823079F00F
:10050000833018F48130C9F405C0833069F0843039
:10051000A1F40FC0862F81580E94D5010895862F1F
:1005200081540E94D5010895862F8D560E94D501D1
:100530000895862F8D520E94D50108950F931F9321
:10054000CF93DF938A01E901882311F0662319F420
:100550000E94360202C00E947E02C530D10571F4AD
:10056000C80160E177E20E94101ACB01C096909317
:100570009502809394020E94110203C0C430D105F9
:10058000B9F4C80168EE73E00E94101ACB017093B1
:100590009702609396026AE070E00E94101AC0967B
:1005A00090933F0580933E050E94110281E001C0B7
:1005B00080E0C330D10511F08130B1F4C80164E6A8
:1005C00070E00E94101ACB0170939702609396021C
:1005D0006AE070E00E94101AC0969093190580930B
:1005E00018050E94110281E0C230D10511F081305E
:1005F000B1F42AE030E0C801B9010E94101ACB0121
:100600007093970260939602B9010E94101AC096E7
:1006100090931205809311050E94110281E0C13070
:10062000D10511F0813061F4C8016AE070E00E94E8
:10063000101AC09690933D0580933C050E941102CC
:10064000C630D1051CF085E40E941102DF91CF91E4
:100650001F910F910895F8940E94D6002EE42093E4
:10066000A10233E53093A20295E49093A60287E5B8
:100670008093AA023093B9022093D2023093D5021C
:100680008093D6022093ED028093F00290930603AC
:1006900090932003809336032093490330934803BB
:1006A000809362039093630320937C03809393036E
:1006B00090939A032093A5033093A7038093AA03F2
:1006C0009093C1033093BD032093BF038093DB035A
:1006D0003093D7032093EF038093F60380930904AC
:1006E0009093230490933A04909356049093820439
:1006F000309381042093680490936B0430939C049E
:1007000080939B042093640390937E03309398031B
:100710003093B4048093CE042093E8047894089531
:100720008F929F92AF92BF92CF92DF92EF92FF9201
:100730000F931F93CF93DF935C014B0186179707AD
:1007400069F480913A0590913B05009739F481E076
:1007500090E090933B0580933A0551C08501000FCE
:10076000111F0A0D1B1D000F111F000F111F000F7D
:10077000111F0A0D1B1D00561D4FEE24FF24C0E063
:10078000D0E00F2EF1E7CF2EF2E0DF2EF02DF801B2
:1007900021918F012223F1F080911305909114058E
:1007A0008C179D07B9F08091470290914802F6019D
:1007B000E80FF91F20830196909348028093470227
:1007C000B0921405A0921305CE01B4010E949003CB
:1007D000E80EF91E2196C931D105C9F61E141F0471
:1007E00064F08091470290914802019790934802EB
:1007F0008093470280E090E002C081E090E0DF91CA
:10080000CF911F910F91FF90EF90DF90CF90BF900D
:10081000AF909F908F9008950F931F93CF93DF9386
:10082000BC0180914D0290914E0288309105A1F457
:100830006731710589F483E58093580297E59093B9
:10084000590280935A0210925B0281E090E09093EB
:10085000480280934702D0C0E0914702F0914802DD
:10086000E95AFD4F8081882309F0C3C0F894709342
:100870004C0260934B0220914D0230914E02309316
:10088000140520931305C7E5D2E08E01CE014A96E8
:10089000FE011192E817F907E1F781E090E09093EB
:1008A00048028093470210923B0510923A05C90115
:1008B0000E9490032091470230914802215030401D
:1008C000055E1F4F1992C017D107E1F712161306E4
:1008D00064F4E2E7F2E0A8E5B2E081E090E0419163
:1008E0004D93019628173907D4F780915802882331
:1008F00031F421E030E0F901E95AFD4F2DC0A8E5BF
:10090000B2E0ED0181E090E061E070E021E030E0F4
:1009100047E552E001C0BC01ED91E53421F4EC91D2
:10092000E73541F405C0E73529F4EC91E53411F4DD
:10093000CB010296FA01E80FF91F608169932F5FDE
:100940003F4F0196FA01E80FF91F6081662319F7FE
:100950002B31310584F206C011922F5F3F4F2B31AE
:100960003105D4F380915802882331F441E050E0FE
:10097000FA01E95AFD4F2FC0A8E5B2E0ED0181E090
:1009800090E021E030E041E050E067E572E001C036
:10099000C901ED91E33521F4EC91EE3441F405C049
:1009A000EE3429F4EC91E33511F4C9010296FB0110
:1009B000E80FF91F208129934F5F5F4F9C012F5F44
:1009C0003F4FFB01E20FF31F8081882309F74B3172
:1009D000510574F206C011924F5F5F4F4B315105C4
:1009E000D4F381E090E0909348028093470278949A
:1009F00003C0CB010E944B01DF91CF911F910F915A
:100A000008950F931F93CF93DF938C01C09136020B
:100A1000D09137022097A9F486E090E00E94371A1F
:100A2000E82FF92FF0933702E09336021583048301
:100A30001182108213821282F0933902E0933802FD
:100A400014C086E090E00E94371AE82FF92F158332
:100A50000483FB83EA83D183C0838A819B81909343
:100A60003702809336021382128280914502909160
:100A7000460201969093460280934502DF91CF9102
:100A80001F910F9108958091450290914602009721
:100A9000B1F08091360290913702FC0120813181C2
:100AA00030933702209336020E94CD1A809145027E
:100AB00090914602019790934602809345020895D3
:100AC0002FEF27B98130910511F4439A08950097CB
:100AD00009F443980895F89487B1876F87B988B16E
:100AE000807888B97894089591B19F6091B98636DD
:100AF00019F486E082B90895823619F489E082B942
:100B000008958C3619F485E082B90895823719F476
:100B10008AE082B9089512B80895F89481B18F607F
:100B200081B9EAE0F1E0808188618083EBE0F1E067
:100B30008081886180838FEF90E09093250180937E
:100B40002401E0E2F1E08081896A8083E1E2F1E062
:100B500080818B6080838FEF90E069EF70E00E946E
:100B6000F70078940895CF92DF92EF92FF921F934F
:100B7000CF93DF93C82F6A017B018FEF90E069EF7D
:100B800070E00E94F70010924F02109250021092F3
:100B9000510210925202109253021092540210927B
:100BA00055021092560260E070E080E090E019E09B
:100BB000D6E017C0C63611F4D2B903C0C23609F464
:100BC00012B960914F027091500280915102909140
:100BD00052020E94581723EA32E94AE05FE30E947A
:100BE0004A18382F292F862F972FA32FB22FBC01F9
:100BF000CD010E94A816A70196010E94BB1688236A
:100C0000CCF20E943906DF91CF911F91FF90EF90B7
:100C1000DF90CF90089581B18F6081B982B1807FDC
:100C200082B9EAE0F1E0808188618083EBE0F1E065
:100C30008081886180838FEF90E090932901809379
:100C4000280190932B0180932A0108956C98749A3F
:100C500008956D98759A08950E940B060E942606C5
:100C60000E942906089592B1907F8F70982B92B9B7
:100C7000089580E00E943306089585E00E943306BF
:100C800008958AE00E943306089584E00E943306A6
:100C9000089582E00E94330608950F931F93CF9327
:100CA000DF93EC018FEF90E069EF70E00E94F700B6
:100CB00080914D0290914E020F978330910560F420
:100CC000BE0180E090E00E94581723E333E343E93C
:100CD00050E40E94BF160BC0BE0180E090E00E946D
:100CE000581728E431EE42E850E40E94BF16382F2E
:100CF000292F862F972FA32FB22FBC01CD010E9441
:100D00002C17DC01CB01A0E0B0E010924F02109252
:100D100050021092510210925202109253021092FD
:100D200054021092550210925602F1E0C0E0409138
:100D30004F02509150026091510270915202009105
:100D40005302109154022091550230915602EF2F18
:100D5000481759076A077B0708F4EC2FEE2349F47C
:100D60004F2F081719072A073B0708F44C2F442375
:100D7000F1F20E9439060E940201DF91CF911F918A
:100D80000F910895EF92FF920F931F93CF93DF93EC
:100D9000EC0180912A0290912B028C0F9D1F909361
:100DA0002B0280932A020E943D06CE010E944D062E
:100DB00080911E0590911F058F30910508F040C06D
:100DC00080911C0590911D058F309105C8F580918B
:100DD0002005909121058F30910590F5CEE1D5E069
:100DE0000CE115E00F2EF0E2EF2EF5E0FF2EF02DD6
:100DF0008FEF90E069EF70E00E94F70080914D0264
:100E000090914E028A30910511F0009731F484EBF5
:100E100090E06EEA70E00E94F7000E943D06888133
:100E200099818F30910560F4F801808191818F3034
:100E3000910530F4F701808191818F309105C0F2E6
:100E40000E943906DF91CF911F910F91FF90EF9093
:100E50000895EF92FF920F931F93CF93DF93EC01CE
:100E600080912A0290912B028C1B9D0B90932B0258
:100E700080932A020E944106CE010E944D06809175
:100E80001E0590911F058F30910508F040C080919C
:100E90002005909121058F309105C8F580911C05A2
:100EA00090911D058F30910590F5CEE1D5E000E2DF
:100EB00015E00F2EFCE1EF2EF5E0FF2EF02D8FEF69
:100EC00090E069EF70E00E94F70080914D029091F0
:100ED0004E028A30910511F0009731F484EB90E0D6
:100EE0006EEA70E00E94F7000E94410688819981B5
:100EF0008F30910560F4F801808191818F309105E8
:100F000030F4F701808191818F309105C0F20E9409
:100F10003906DF91CF911F910F91FF90EF900895C7
:100F2000CF93DF93EC0180912A0290912B028C0FDA
:100F30009D1F90932B0280932A020E944506CE01AA
:100F4000880F991F0E944D06DF91CF910895CF938E
:100F5000DF93EC0180912A0290912B028C1B9D0B58
:100F600090932B0280932A020E944906CE01880F9B
:100F7000991F0E944D06DF91CF910895F8940E9429
:100F80002C06EAE6F0E0808188608083ED9A80811B
:100F900082608083EC9A78940895F894109285008A
:100FA000109284008EE794E09093870080938600EF
:100FB0002AEA209380002CE12093810024B1206E46
:100FC00024B925B1206E25B99093890080938800BB
:100FD00090938B0080938A0090938D0080938C0077
:100FE00078940895CF93DF93EC0180914D02909116
:100FF0004E028D309105E1F4BE01882777FD809582
:10100000982F0E945A1725E83BEE41EF5FE30E94BC
:10101000BF1620E030E048EC51E40E9444160E94E4
:101020002C17DC01CB0190938900809388001DC0B0
:10103000BE01882777FD8095982F0E945A1725E8D2
:101040003BEE41EF5FE30E94BF1620E030E048EC4A
:1010500051E40E9444160E94A8160E942C17DC013D
:10106000CB019093890080938800D0932F02C09386
:101070002E02DF91CF910895CF93DF93EC01BE0153
:10108000882777FD8095982F0E945A1725E83BEE18
:1010900041EF5FE30E94BF1620E030E048EC51E4EE
:1010A0000E9444160E94A8160E942C17DC01CB0156
:1010B00090938B0080938A00D0932D02C0932C02D2
:1010C000DF91CF9108958EE794E09093890080930B
:1010D000880008958EE794E090938B0080938A00B7
:1010E000089583E090E00E943C088FEF9FEFACE210
:1010F00081509040A040E1F700C000000895F894AE
:101100001092900082E0809391001092920081E012
:101110008093710010BA11BA109207011092080161
:10112000EAE7F0E0108210927B0080E280937C007E
:1011300080E880BF86E880830895883091051CF0A0
:1011400028E020937B0087709070806280937C0001
:10115000EAE7F0E0808180648083808184FFFDCFB6
:1011600080917900EAE7F0E090819061908310929D
:101170007B0090E008951F920F920FB60F920BB66E
:101180000F9211240F931F932F933F934F935F93CD
:101190006F937F938F939F93AF93BF93CF93DF937F
:1011A000EF93FF9380914F0290915002A0915102D2
:1011B000B09152020196A11DB11D80934F029093F0
:1011C0005002A0935102B093520280912A02909152
:1011D0002B0299231CF4909581959F4F21E088362E
:1011E000920721F410922B0210922A02C0E0D0E064
:1011F0000AE115E0CE010E949D08282F392FFE013B
:10120000EE0FFF1FE00FF11F318320832196C031C5
:10121000D10581F7FF91EF91DF91CF91BF91AF9110
:101220009F918F917F916F915F914F913F912F91FE
:101230001F910F910F900BBE0F900FBE0F901F903C
:1012400018951F920F920FB60F920BB60F921124A2
:101250000F931F932F933F934F935F936F937F93BE
:101260008F939F93AF93BF93CF93DF93EF93FF93AE
:101270008091530290915402A0915502B091560270
:101280000196A11DB11D8093530290935402A09327
:101290005502B093560280912A0290912B02992315
:1012A0001CF4909581959F4F21E08836920721F498
:1012B00010922B0210922A02C0E0D0E00AE115E061
:1012C000CE010E949D08282F392FFE01EE0FFF1F2F
:1012D000E00FF11F318320832196C031D10581F7C2
:1012E000FF91EF91DF91CF91BF91AF919F918F913E
:1012F0007F916F915F914F913F912F911F910F912E
:101300000F900BBE0F900FBE0F901F9018950F936C
:101310001F939C01B901882777FD8095982F0E9423
:101320005A172FEE39EC43E95FE30E94AD18B62F50
:10133000A72F382F292F60E070E080E89FE3422F2D
:101340000B2F1A2F232F342FA90198010E94BF16AB
:101350002AE939EF4EE255E40E944A1820E030E0D5
:1013600040E251E40E944A180E942717882777FD1F
:101370008095982F0E945A170E942717862F972F23
:1013800033E08132930714F080E293E01F910F91D4
:101390000895AF92BF92CF92DF92EF92FF920F9398
:1013A0001F93CF93DF93E0914702F0914802E95AEF
:1013B000FD4F8081882309F4EBC080914D0290910C
:1013C0004E028630910579F4E0919202F0919302F9
:1013D0002081253441F420914B0230914C0225317B
:1013E000310509F516C08031910541F4E091920272
:1013F000F091930220812735F9F415C08F309105C3
:1014000041F4E0919202F09193028081873501F5D9
:101410000AC08131910581F4E0919202F09193022A
:1014200080818735A9F486E640E050E060E470E40E
:101430002FE60E94B30514C08E30910549F486E66C
:1014400040E050E068E171E42FE60E94B30508C077
:1014500086E640E050E068E071E42FE60E94B305C4
:10146000E0919202F09193025081E0914702F09155
:101470004802E95AFD4F4081852F90E0841B910975
:101480002FEF873F920731F08430910519F08E30AD
:101490009105C1F4541709F470C0C7E5D2E08AE59C
:1014A00090E00E94C206E0919202F0919302A09116
:1014B0004702B0914802AC0FBD1F90818C919817E4
:1014C00071F75BC020914D0230914E0223303105FF
:1014D000C1F4541709F451C0C7E5D2E084EB90E0A1
:1014E0000E942907E0919202F0919302A091470295
:1014F000B0914802AC0FBD1F90818C91981771F785
:101500003CC09C01992324F422273327281B390B44
:101510002530310519F4541739F42FC02231310523
:10152000D1F35417B1F429C0C7E5D2E084EB90E0C1
:101530000E94C206E0919202F0919302A0914702AC
:10154000B0914802AC0FBD1F90818C91981771F734
:1015500014C0C7E5D2E08AE590E00E942907E09137
:101560009202F0919302A0914702B0914802AC0F11
:10157000BD1F90818C91981771F7809147029091CF
:101580004802019690934802809347020C94981366
:1015900080914B0290914C0290934E0280934D02A9
:1015A0000E94020180914D0290914E020F9783306C
:1015B000910508F07BC18091280290912902209129
:1015C000260230912702820F931F2091240230912E
:1015D0002502820F931F8130910509F4A3C08091E9
:1015E000490290914A02009709F09CC080913A020A
:1015F00090913B02823091050CF094C00E943D0610
:101600008DE290E00E944D0686E640E050E060E802
:1016100071E42FE60E94B3050E9441068AEA90E039
:101620000E944D060E94390610924202C0E2D5E1A6
:10163000FE01199580914202882351F486E640E02C
:1016400050E060E070E42FE60E94B305FE011995BA
:1016500080914D0290914E028F30910529F4809136
:10166000420280938B020FC08031910529F4809152
:10167000420280938C0207C08131910521F4809150
:10168000420280938D020E943D068AEA90E00E9409
:101690004D0682E640E050E060E471E42FE60E94EF
:1016A000B30580911E0590911F058F30910590F52F
:1016B00080911C0590911D058F30910558F5809102
:1016C0002005909121058F30910520F5CEE1D5E0E0
:1016D0000CE115E00F2EF0E2EF2EF5E0FF2EF02DDD
:1016E0008FEF90E069EF70E00E94F7000E944106E2
:1016F000888199818F30910568F4D8018D919C91F2
:1017000011978F30910530F4F701808191818F30EE
:10171000910530F30E94410689E190E00E944D0658
:101720000E943906E0914002F0914102EC5EFA4FCE
:10173000908180914202981711F180912802909136
:1017400029022091260230912702820F931F2091B7
:10175000240230912502820F931F8130910579F088
:1017600080913A0290913B028230910541F02091A4
:10177000490230914A02121613060CF05BC0109217
:101780003B0210923A028AE090E00E94F2078FEF4B
:101790009FE3ADE181509040A040E1F700C0000020
:1017A0008DE290E00E943C088FEF9FE7A4E081501B
:1017B0009040A040E1F700C0000080E590E00E946A
:1017C000F2070E946A0880914D0290914E028F307C
:1017D000910551F4809128029091290201979093EC
:1017E00029028093280219C08031910551F480911B
:1017F0002602909127020197909327028093260258
:101800000CC08131910549F4809124029091250208
:10181000019790932502809324028AE090E00E9431
:101820000C0482E640E050E060EC70E42FE60E9499
:10183000B3053CC0019690933B0280933A0282E646
:1018400040E050E060EC70E42FE60E94B305809128
:101850002602909127028130910549F480918C02F3
:10186000882329F480E190E00E940C041FC080913D
:101870002802909129028130910549F480918B02D0
:10188000882329F48FE090E00E940C040FC080911F
:101890002402909125028130910541F480918D02BE
:1018A000882321F481E190E00E940C0480914D0294
:1018B00090914E028130910509F09CC086E640E08F
:1018C00050E060E271E42FE60E94B3050E943D06FD
:1018D00080912A0290912B02865A9F4F90932B025F
:1018E00080932A028FE590E00E944D060E943906FF
:1018F00080912002909121028230910591F586E637
:1019000040E050E060E670E42FE60E94B30580E11D
:1019100090E00E94F2078FEF9FEFA3E2815090408A
:10192000A040E1F700C0000080E090E00E943C0889
:101930008FEF9FE7A6E181509040A040E1F700C003
:10194000000082E890E00E94F2078FEF9FE7A1E39A
:1019500081509040A040E1F700C000000E94630861
:1019600034C08130910589F586E640E050E060EAB8
:1019700070E42FE60E94B30589E090E00E94F20730
:101980008FEF9FEFA3E281509040A040E1F700C0AD
:10199000000080E090E00E943C088FEF9FE7A6E106
:1019A00081509040A040E1F700C0000082E890E044
:1019B0000E94F2078FEF9FE7A1E381509040A04083
:1019C000E1F700C000000E9463088091200290911E
:1019D00021020197909321028093200282E640E049
:1019E00050E060E671E42FE60E94B30584E090E0E9
:1019F0000E94010580914D0290914E028D3091051B
:101A000009F026C18091180290911902009709F4FB
:101A100083C086E640E050E060E471E42FE60E9477
:101A2000B30580911802909119028230910551F509
:101A300080E190E00E94F2078FEF9FEFA3E28150D8
:101A40009040A040E1F700C0000080E090E00E94DC
:101A50003C088FEF9FE7A6E181509040A040E1F75E
:101A600000C0000082E890E00E94F2078FEF9FE73D
:101A7000A1E381509040A040E1F700C000000E9427
:101A8000630834C08130910589F586E640E050E076
:101A900060E070E42FE60E94B30589E090E00E94C8
:101AA000F2078FEF9FEFA3E281509040A040E1F753
:101AB00000C0000080E090E00E943C088FEF9FE7AC
:101AC000A6E181509040A040E1F700C0000082E80C
:101AD00090E00E94F2078FEF9FE7A1E381509040D2
:101AE000A040E1F700C000000E9463088091180246
:101AF000909119020197909319028093180282E63F
:101B000040E050E060E671E42FE60E94B3058EE00D
:101B100090E00E9401059CC086E640E050E060E352
:101B200071E42FE60E94B3050E943D0680912A02CF
:101B300090912B02865A9F4F90932B0280932A02FA
:101B400081E690E00E944D060E94390680911A02BB
:101B500090911B028230910591F586E640E050E0BD
:101B600060E870E42FE60E94B30580E190E00E94F7
:101B7000F2078FEF9FEFA3E281509040A040E1F782
:101B800000C0000080E090E00E943C088FEF9FE7DB
:101B9000A6E181509040A040E1F700C0000082E83B
:101BA00090E00E94F2078FEF9FE7A1E38150904001
:101BB000A040E1F700C000000E94630834C08130FB
:101BC000910589F586E640E050E060EA70E42FE692
:101BD0000E94B30589E090E00E94F2078FEF9FEF2B
:101BE000A3E281509040A040E1F700C0000080E0F7
:101BF00090E00E943C088FEF9FE7A6E18150904063
:101C0000A040E1F700C0000082E890E00E94F207E7
:101C10008FEF9FE7A1E381509040A040E1F700C023
:101C200000000E94630880911A0290911B020197A4
:101C300090931B0280931A0282E640E050E060E637
:101C400071E42FE60E94B3058EE090E00E9401054A
:101C500080914D0290914E028330910509F082C02F
:101C600086E640E050E068E371E42FE60E94B305A9
:101C700080911E0290911F028230910551F58EE0F5
:101C800090E00E94F2078FEF9FEFA3E28150904017
:101C9000A040E1F700C0000080E090E00E943C0816
:101CA0008FEF9FE7A6E181509040A040E1F700C090
:101CB000000082E890E00E94F2078FEF9FE7A1E327
:101CC00081509040A040E1F700C000000E946308EE
:101CD00034C08130910589F586E640E050E060E847
:101CE00070E42FE60E94B30589E090E00E94F207BD
:101CF0008FEF9FEFA3E281509040A040E1F700C03A
:101D0000000080E090E00E943C088FEF9FE7A6E192
:101D100081509040A040E1F700C0000082E890E0D0
:101D20000E94F2078FEF9FE7A1E381509040A0400F
:101D3000E1F700C000000E94630880911E029091AC
:101D40001F02019790931F0280931E0282E640E0DB
:101D500050E068E671E42FE60E94B30584E090E06D
:101D60000E94010580914D0290914E028C309105A8
:101D700009F082C086E640E050E060E471E42FE6BE
:101D80000E94B30580911C0290911D028230910542
:101D900051F580E190E00E94F2078FEF9FEFA3E200
:101DA00081509040A040E1F700C0000080E090E04A
:101DB0000E943C088FEF9FE7A6E181509040A04031
:101DC000E1F700C0000082E890E00E94F2078FEF88
:101DD0009FE7A1E381509040A040E1F700C00000E0
:101DE0000E94630834C08130910589F586E640E0A1
:101DF00050E060E270E42FE60E94B30589E090E0D5
:101E00000E94F2078FEF9FEFA3E281509040A04025
:101E1000E1F700C0000080E090E00E943C088FEFF6
:101E20009FE7A6E181509040A040E1F700C000008C
:101E300082E890E00E94F2078FEF9FE7A1E38150D4
:101E40009040A040E1F700C000000E94630880912C
:101E50001C0290911D02019790931D0280931C0219
:101E600082E640E050E060E671E42FE60E94B305B0
:101E70008EE090E00E94010580914D0290914E020B
:101E80008630910509F014C28091220290912302BC
:101E90008130910509F4A7C182E640E050E060E49A
:101EA00070E420E30E94B305809122029091230206
:101EB0008330910509F099C086E640E050E060E08B
:101EC00070E420E30E94B30585E290E00E94F207EF
:101ED0008FEF9FEFA3E281509040A040E1F700C058
:101EE00000000E94710880E590E00E94F2078FEFE9
:101EF0009FEFA3E281509040A040E1F700C00000B6
:101F000084EB90E00E94C20680E090E00E94F2071D
:101F10008FEF9FEFACE281509040A040E1F700C00E
:101F2000000010924202C0E2D5E1FE0119958091B5
:101F300042028823C1F48DE290E00E943C0886E6CC
:101F400040E050E060E070E42FE60E94B305FE013F
:101F5000199582E640E050E060E070E42FE60E94D0
:101F6000B3050E947108E0914002F0914102EB5EDE
:101F7000FA4F80914202808380E590E00E94F20750
:101F800080912602909127028130910529F480E109
:101F900090E00E940C0417C08091280290912902C1
:101FA0008130910529F48FE090E00E940C040BC071
:101FB00080912402909125028130910521F481E1E4
:101FC00090E00E940C048091470290914802019693
:101FD0009093480280934702809140029091410281
:101FE0000196909341028093400280912202909149
:101FF00023028230910509F0ECC086E640E050E013
:1020000060E070E42FE60E94B30589E190E00E9451
:10201000F2078FEF9FEFA3E281509040A040E1F7DD
:1020200000C000000E94710880E590E00E94F20765
:102030008FEF9FEFA3E281509040A040E1F700C0F6
:10204000000084EB90E00E94C20680E090E00E94D5
:10205000F2078FEF9FEFACE281509040A040E1F794
:1020600000C0000010924202C0E2D5E1FE011995C5
:10207000809142028823C1F48DE290E00E943C08E6
:1020800086E640E050E060E070E42FE60E94B30591
:10209000FE01199582E640E050E060E070E42FE632
:1020A0000E94B3050E947108E0914002F091410244
:1020B000EB5EFA4F80914202808380E590E00E94BF
:1020C000F207CBE8D2E00FE010E0CC24DD240F2EA5
:1020D000F5E1AF2EF5E0BF2EF02D7E01809140029C
:1020E000909141028A0D9B1DDC019C91888198177B
:1020F00061F48091490290914A02019690934A02BC
:1021000080934902C8010E940C042196F701808146
:10211000882319F00894C11CD11C0F5F1F4F033195
:102120001105D9F6F3E0CF16D1044CF080914902A5
:1021300090914A02019690934A0280934902E0915D
:102140004702F0914802E95AFD4F8081882379F5D2
:1021500080912602909127028130910549F4809167
:102160008C02882329F480E190E00E940C041FC0B7
:1021700080912802909129028130910549F4809143
:102180008B02882329F48FE090E00E940C040FC09A
:1021900080912402909125028130910541F4809133
:1021A0008D02882321F481E190E00E940C0480914B
:1021B000470290914802019690934802809347020B
:1021C0008091400290914102019690934102809348
:1021D0004002809122029091230201979093230262
:1021E0008093220265C086E640E050E060E270E441
:1021F0002FE60E94B3058DE290E00E943C088FEF2D
:102200009FEFA8E081509040A040E1F700C000009F
:102210008091490290914A02019690934A028093DC
:10222000490285E090E00E94F2078FEF9FEFA3E262
:1022300081509040A040E1F700C000000E9471086A
:1022400080E590E00E94F20780912602909127029B
:102250008130910529F480E190E00E940C0417C0C0
:1022600080912802909129028130910529F48FE014
:1022700090E00E940C040BC08091240290912502F2
:102280008130910521F481E190E00E940C0480915D
:102290004002909141020196909341028093400246
:1022A00086E640E050E060E470E42FE60E94B3056B
:1022B00080914D0290914E028430910509F075C0D5
:1022C00082E640E050E060E870E42FE60E94B3054B
:1022D00082E490E00E94F2078FEF9FE7AFE1815028
:1022E0009040A040E1F700C000008DE290E00E9425
:1022F0003C088FEF9FE7A4E081509040A040E1F7B9
:1023000000C0000080E590E00E94F2078FEF9FEF91
:10231000ACE281509040A040E1F700C00000809105
:102320003005909131050E948709A1E08C329A070F
:102330004CF4809144028093430286E090E00E9436
:102340000C0412C089E48093430280911E02909194
:102350001F02009729F481E090E00E940C0404C061
:1023600083E090E00E940C040E943D0680912A02C6
:1023700090912B028C549F4F90932B0280932A02B2
:1023800084EB90E00E944D068091470290914802B4
:102390000196909348028093470282E640E050E025
:1023A00060EA70E42FE60E94B30580914D0290919F
:1023B0004E028E30910509F074C082E640E050E094
:1023C00060E870E42FE60E94B30582E490E00E948A
:1023D000F2078FEF9FEFACE281509040A040E1F711
:1023E00000C000008CE390E00E943C088FEF9FE764
:1023F000A4E081509040A040E1F700C000008AE5D1
:1024000090E00E94F2078FEF9FEFACE28150904086
:10241000A040E1F700C000008091300590913105A7
:102420000E948709883C91054CF480914402809376
:10243000430280E090E00E940C0412C083E4809389
:10244000430280911C0290911D02009729F08CE0BC
:1024500090E00E940C0404C08DE090E00E940C0407
:102460000E943D0680912A0290912B028C549F4F2E
:1024700090932B0280932A0284EB90E00E944D06F9
:102480008091470290914802019690934802809370
:10249000470282E640E050E060EA70E42FE60E94E6
:1024A000B30580914D0290914E02009709F081C0D2
:1024B000E0919202F09193028081873509F452C035
:1024C00086E640E050E060E371E42FE60E94B30549
:1024D000E0919202F091930220812E3421F02B356D
:1024E00011F0253661F48AE590E00E94C206E09181
:1024F0009202F091930280818735A9F72BC0822F39
:1025000090E0875590401AF4909581959F4F8530C3
:10251000910519F4273539F41DC082319105D1F3A5
:10252000273569F417C084EB90E00E942907E091F9
:102530009202F091930280818735A9F70BC08AE55A
:1025400090E00E942907E0919202F091930280812D
:102550008735A9F782E640E050E060E371E42FE6BA
:102560000E94B30580913005909131050E94870942
:10257000A1E080399A074CF4809144028093430291
:1025800086E090E00E940C0412C089E4809343022C
:1025900080911E0290911F02009729F481E090E043
:1025A0000E94010504C083E090E00E9401050E94A2
:1025B000020180914D0290914E028A30910509F0FE
:1025C0007FC0E0919202F09193028081853409F4FA
:1025D00052C086E640E050E060E371E42FE60E94DE
:1025E000B305E0919202F091930220812C3321F007
:1025F000293411F0233561F48AE590E00E94C20687
:10260000E0919202F091930280818534A9F72BC06A
:10261000822F90E0855490401AF4909581959F4FB9
:102620008530910519F4253439F41DC082319105A6
:10263000D1F3253469F417C084EB90E00E94290798
:10264000E0919202F091930280818534A9F70BC04A
:102650008AE590E00E942907E0919202F0919302AE
:1026600080818534A9F782E640E050E060E471E4BF
:102670002FE60E94B30580913005909131050E94AC
:102680008709B1E0823C9B074CF48091440280931F
:10269000430280E090E00E940C0412C083E4809327
:1026A000430280911C0290911D02009729F08CE05A
:1026B00090E00E94010504C08DE090E00E940105B9
:1026C00080914502909146020097A1F0E091470267
:1026D000F0914802E95AFD4F8081882349F5E09145
:1026E0003602F0913702848195810E940C040E9489
:1026F00043051EC0E0914702F0914802E95AFD4FA0
:1027000080818823A9F481E090E00E9460058FEF2A
:102710009FEFA9E581509040A040E1F700C0000084
:1027200080E090E00E94600581E090E00E94661BDE
:10273000DF91CF911F910F91FF90EF90DF90CF909D
:10274000BF90AF9008951F920F920FB60F920BB6E5
:102750000F9211242F933F934F935F936F937F9327
:102760008F939F93AF93BF93EF93FF9381E090E09C
:102770000E949D08282F392F30931D0520931C059A
:1027800082E090E00E949D08282F392F30931F058A
:1027900020931E0583E090E00E949D08282F392F8A
:1027A00030932105209320058BE090E00E949D0846
:1027B000282F392F309331052093300580914D0219
:1027C00090914E028A30910524F483E48093440270
:1027D00003C089E480934402FF91EF91BF91AF91D0
:1027E0009F918F917F916F915F914F913F912F9129
:1027F0000F900BBE0F900FBE0F901F9018958091F9
:102800001E0590911F058D33910570F480911C0574
:1028100090911D058031910560F080911E05909189
:102820001F058031910528F00E9439060E94C909D0
:10283000089580911E0590911F058031910598F0B3
:1028400080911C0590911D058031910538F480918F
:102850002005909121058031910528F00E943906CC
:102860000E94C909089580911C0590911D05803131
:10287000910580F080912005909121058F30910580
:1028800048F48FEF90E069EF70E00E94F7000E943B
:102890004106089580911C0590911D058F3091058A
:1028A00080F480912005909121058031910548F0B8
:1028B0008FEF90E069EF70E00E94F7000E943D0604
:1028C00008958FEF90E069EF70E00E94F70086E6D0
:1028D0000E94740508958AB18E6F8AB9589A089536
:1028E0000E946B140895F894E9E6F0E0808182601C
:1028F0008083E89A789408951F920F920FB60F92F2
:1029000011248F939F93AF93BF9380913C0290913A
:102910003D02A0913E02B0913F020196A11DB11D62
:1029200080933C0290933D02A0933E02B0933F02FD
:10293000BF91AF919F918F910F900FBE0F901F90FD
:102940001895F8940E9470140E9473147894089556
:102950005E985F9808955E9A5F9A08955E985F9A70
:1029600008955C9A5D9A08950E94A81410923C0202
:1029700010923D0210923E0210923F028FEF9FE7AD
:10298000A4E081509040A040E1F700C00000809199
:102990003C0290913D02A0913E02B0913F02809393
:1029A0009C0290939D02A0939E02B0939F02089573
:1029B0000E94AB1410923C0210923D0210923E0213
:1029C00010923F028FEF9FE7A4E081509040A0401B
:1029D000E1F700C0000080913C0290913D02A0917F
:1029E0003E02B0913F028093980290939902A09387
:1029F0009A02B0939B0208950E94AE1410923C027A
:102A000010923D0210923E0210923F028FEF9FE71C
:102A1000A4E081509040A040E1F700C00000809108
:102A20003C0290913D02A0913E02B0913F02809302
:102A30008E0290938F02A0939002B093910208951A
:102A40000E94B4140E94FC140E94D81480919C022D
:102A500090919D02A0919E02B0919F02843125E049
:102A6000920720E0A20720E0B20718F580918E02BD
:102A700090918F02A0919002B0919102843125E053
:102A8000920720E0A20720E0B20798F48091980214
:102A900090919902A0919A02B0919B02843125E015
:102AA000920720E0A20720E0B20718F41092420239
:102AB00089C040919C0250919D0260919E0270914C
:102AC0009F0280918E0290918F02A0919002B0910E
:102AD000910284179507A607B707C8F440919C0296
:102AE00050919D0260919E0270919F028091980288
:102AF00090919902A0919A02B0919B028417950738
:102B0000A607B70720F482E5809342025BC040919C
:102B10008E0250918F02609190027091910280918B
:102B20009C0290919D02A0919E02B0919F028417F9
:102B30009507A607B707C8F440918E0250918F02FF
:102B40006091900270919102809198029091990207
:102B5000A0919A02B0919B0284179507A607B70728
:102B600020F482E4809342022DC04091980250915B
:102B7000990260919A0270919B0280919C029091BF
:102B80009D02A0919E02B0919F0284179507A6070F
:102B9000B707C0F4409198025091990260919A024F
:102BA00070919B0280918E0290918F02A091900271
:102BB000B091910284179507A607B70718F487E428
:102BC0008093420282E06AE00E947E02809142028B
:102BD0000E94110208950E942B030E946B050E941F
:102BE000FA010E94BE070E948D050E94CD070E9437
:102BF0007F080E94A1140E94B1140E94020180E586
:102C000090E00E94F2078DE290E00E943C088FEF76
:102C10009FE7A6E181509040A040E1F700C000008E
:102C20000E946A080E94FF13809128029091290255
:102C30002091260230912702820F931F20912402B7
:102C400030912502820F931F009761F781E090E099
:102C50000E9460058FEF9FEFA0EE81509040A04052
:102C6000E1F700C0000080E090E00E9460058FEF77
:102C70009FE7A6E181509040A040E1F700C000002E
:102C800080E090E008955058BB27AA270ED0B1C12C
:102C9000A2D130F0A7D120F031F49F3F11F41EF4FF
:102CA00097C10EF4E095E7FB64C1E92FB3D180F33F
:102CB000BA17620773078407950718F071F49EF539
:102CC000E2C10EF4E0950B2EBA2FA02D0B01B90135
:102CD00090010C01CA01A0011124FF27591B99F092
:102CE000593F50F4503E68F11A16F040A22F232F9E
:102CF000342F4427585FF3CF469537952795A795EE
:102D0000F0405395C9F77EF41F16BA0B620B730B94
:102D1000840BBAF09150A1F0FF0FBB1F661F771F05
:102D2000881FC2F70EC0BA0F621F731F841F48F4BA
:102D3000879577956795B795F7959E3F08F0B3CF40
:102D40009395880F08F09927EE0F9795879508952A
:102D500083D180F09F3740F491110EF495C160E06B
:102D600070E080E89FE3089526F01B16611D711D39
:102D7000811D05C11FC1D9D008F481E008950CD090
:102D800038C130D140F027D130F021F45F3F19F045
:102D9000F0C0511179C11CC13DD198F39923C9F3F9
:102DA0005523B1F3951B550BBB27AA276217730751
:102DB000840738F09F5F5F4F220F331F441FAA1F05
:102DC000A9F333D00E2E3AF0E0E830D091505040C5
:102DD000E695001CCAF729D0FE2F27D0660F771F73
:102DE000881FBB1F261737074807AB07B0E809F055
:102DF000BB0B802DBF01FF2793585F4F2AF09E3FEA
:102E0000510568F0B6C040C15F3FECF3983EDCF37B
:102E1000869577956795B795F7959F5FC9F7880F62
:102E2000911D9695879597F90895E1E0660F771FB4
:102E3000881FBB1F621773078407BA0720F0621B45
:102E4000730B840BBA0BEE1F88F7E095089504D03E
:102E50006894B11119C10895E5D088F09F5790F09A
:102E6000B92F9927B751A0F0D1F0660F771F881FAF
:102E7000991F1AF0BA95C9F712C0B13081F003D189
:102E8000B1E0089500C1672F782F8827B85F39F027
:102E9000B93FCCF3869577956795B395D9F73EF40E
:102EA00090958095709561957F4F8F4F9F4F0895B6
:102EB000E89409C097FB3EF49095809570956195D4
:102EC0007F4F8F4F9F4F9923A9F0F92F96E9BB278A
:102ED0009395F695879577956795B795F111F8CF06
:102EE000FAF4BB0F11F460FF1BC06F5F7F4F8F4F71
:102EF0009F4F16C0882311F096E911C0772321F067
:102F00009EE8872F762F05C0662371F096E8862FFE
:102F100070E060E02AF09A95660F771F881FDAF755
:102F2000880F9695879597F90895990F0008550F82
:102F3000AA0BE0E8FEEF16161706E807F907C0F03F
:102F400012161306E407F50798F0621B730B840B47
:102F5000950B39F40A2661F0232B242B252B21F421
:102F600008950A2609F4A140A6958FEF811D811DC1
:102F7000089597F99F6780E870E060E008958823DE
:102F800071F4772321F09850872B762F07C06623A2
:102F900011F499270DC09051862B70E060E02AF063
:102FA0009A95660F771F881FDAF7880F9695879591
:102FB00097F908959F3F31F0915020F487957795C8
:102FC0006795B795880F911D9695879597F9089500
:102FD0009FEF80EC089500240A9416161706180631
:102FE0000906089500240A9412161306140605060D
:102FF0000895092E0394000C11F4882352F0BB0F9E
:1030000040F4BF2B11F460FF04C06F5F7F4F8F4F00
:103010009F4F089557FD9058440F551F59F05F3F3B
:1030200071F04795880F97FB991F61F09F3F79F0EA
:1030300087950895121613061406551FF2CF46956C
:10304000F1DF08C0161617061806991FF1CF8695EE
:103050007105610508940895E5DFA0F0BEE7B91792
:1030600088F4BB279F3860F41616B11D672F782FA0
:103070008827985FF7CF869577956795B11D9395CB
:103080009639C8F30895E894BB2766277727CB01C4
:1030900097F908950BD0ADCF9EDF28F0A3DF18F08D
:1030A000952309F066CF94CF1124EECFB3DFA0F3C0
:1030B000959FD1F3950F50E0551F629FF001729FCD
:1030C000BB27F00DB11D639FAA27F00DB11DAA1FEC
:1030D000649F6627B00DA11D661F829F2227B00D39
:1030E000A11D621F739FB00DA11D621F839FA00DC4
:1030F000611D221F749F3327A00D611D231F849F14
:10310000600D211D822F762F6A2F11249F5750406A
:103110008AF0E1F088234AF0EE0FFF1FBB1F661F05
:10312000771F881F91505040A9F79E3F510570F0BE
:1031300020CFAACF5F3FECF3983EDCF386957795DE
:103140006795B795F795E7959F5FC1F7FE2B880FB9
:10315000911D9695879597F90895FA01EE0FFF1F37
:1031600030962105310599F16115710561F48038BA
:10317000BFE39B0749F168949038810561F080387E
:10318000BFEF9B0741F0992342F5FF3FE105310571
:10319000210511F1E8940894E795D901AA2329F4AF
:1031A000AB2FBE2FF85FD0F310C0FF5F70F4A69571
:1031B000E0F7F73950F019F0FF3A38F49F779F9312
:1031C0000CD00F9007FC905808953EF001CF60E0BE
:1031D00070E080E89FE308954FE79F775F934F93F8
:1031E0003F932F939ED02F913F914F915F9152DF4C
:1031F00005C019F40EF0BDCE46CFEACE13DFC8F3FA
:103200009638C0F707F80F92E8942BE33AEA48EBB8
:103210005FE74EDF0F920F920F924DB75EB70F929E
:10322000C0D0E4EEF0E016D04F915F91EF91FF91A6
:10323000E595EE1FFF1F49F0FE57E0684427EE0FAB
:10324000441FFA95E1F74195550B32D00F9007FED8
:1032500026C00895DF93CF931F930F93FF92EF92B1
:10326000DF927B018C01689405C0DA2EEF011EDF2E
:10327000FE01E894A5912591359145915591AEF3C4
:10328000EF0113DDFE019701A801DA9479F7DF90D1
:10329000EF90FF900F911F91CF91DF9108959B01C7
:1032A000AC0160E070E080E89FE369CD62CE82CE41
:1032B000B9DEE8F39923D9F3940F511DBBF3915074
:1032C000504094F059F0882332F0660F771F881F22
:1032D00091505040C1F79E3F510544F7880F911D12
:1032E0009695879597F908955F3FACF0983E9CF0CE
:1032F000BB27869577956795B79508F4B160939548
:10330000C1F7BB0F58F711F460FFE8CF6F5F7F4F35
:103310008F4F9F4FE3CFB8CE0EF04CCE59CE68946E
:1033200028CE80DEC8F39923D1F3C6F3DF93CF9381
:103330001F930F93FF92C92FDD2788232AF021972F
:10334000660F771F881FDAF720E030E040E85FEB78
:103350009FE3883920F0803E30F021968F7794DC0F
:10336000ECE0F1E003C090DCE9E3F1E073DF8B0116
:10337000BE01EC01FB2E6F5771097595771F880B05
:10338000990B98DD28E132E741E35FE38FDEAF2D53
:103390009801AE01FF900F911F91CF91DF9185DCD5
:1033A00028CEFA01DC01AA0FBB1F9B01AC01BF575D
:1033B00028F422273327442750781FC0B75188F4B8
:1033C000AB2F0024469537952795011CA395D2F382
:1033D000002069F0220F331F441FB395DAF30DD09C
:1033E00052CC61307105A0E88A07B94630F49B01E0
:1033F000AC016627772788279078309621F02083C4
:103400003183428353830895991B79E004C0991F47
:10341000961708F0961B881F7A95C9F7809508952E
:10342000AA1BBB1B51E107C0AA1FBB1FA617B707EA
:1034300010F0A61BB70B881F991F5A95A9F7809506
:103440009095BC01CD01089597FB092E07260AD05F
:1034500077FD04D0E5DF06D000201AF47095619561
:103460007F4F0895F6F7909581959F4F0895CF93DC
:10347000DF93AC018230910510F442E050E0E0911E
:103480004205F091430520E030E0A0E0B0E024C028
:103490008081918184179507D0F08417950771F486
:1034A00082819381109729F013969C938E931297A3
:1034B0002CC0909343058093420527C02115310508
:1034C00019F08217930718F49C01BD01EF01928156
:1034D0008381DF01E92FF82F3097D1F621153105CF
:1034E000F9F0C901841B950B8430910580F48A8121
:1034F0009B816115710521F0FB019383828304C0D8
:103500009093430580934205FE01329642C0FE012E
:10351000E80FF91F4193519302979983888339C02B
:103520008091400590914105009741F480913202CD
:103530009091330290934105809340052091300291
:10354000309131022115310541F42DB73EB78091FC
:10355000340290913502281B390BE0914005F0911F
:103560004105E217F30798F42E1B3F0B241735078C
:1035700070F0CA0102962817390748F08E0F9F1F76
:1035800090934105809340054193519302C0E0E040
:10359000F0E0CF01DF91CF9108950F931F93CF9368
:1035A000DF939C01009709F48CC0DC0112971396FD
:1035B0001C921E921297609142057091430561150D
:1035C000710589F48D919C911197820F931F209121
:1035D0004005309141052817390769F5B093410539
:1035E000A09340056EC0FB0140E050E001C0FC012B
:1035F000EA17FB0730F482819381AF010097B9F796
:103600001FC0E9012297FB83EA8308811981C90160
:10361000800F911F8E179F0759F480819181800F31
:10362000911F029699838883828193819B838A83E9
:103630004115510529F4B0934305A093420541C0BB
:10364000FA01B383A283C191D191EC0FFD1FAE1794
:10365000BF0781F4F901929182918C0F9D1F029610
:10366000DA0111969C938E938281938113969C9399
:103670008E931297E0E0F0E002C0FB01BC01DB0199
:1036800012968D919C9113970097B9F7CB010296F2
:103690002D913C911197820F931F209140053091FD
:1036A00041052817390769F4309729F4109243052A
:1036B0001092420502C013821282709341056093FA
:1036C0004005DF91CF911F910F910895F894FFCF9E
:1036D000456173742000536F757468004E6F727487
:1036E00068005765737420000200020002000200A7
:1036F00002000300010001000100B400B400B400A6
:063700000000440520005A
:00000001FF
